{
  "_format": "hh-sol-artifact-1",
  "contractName": "ServiceProvider",
  "sourceName": "contracts/staking/ServiceProvider.sol",
  "abi": [
    {
      "anonymous": false,
      "inputs": [
        {
          "indexed": true,
          "internalType": "address",
          "name": "user",
          "type": "address"
        },
        {
          "indexed": false,
          "internalType": "uint256",
          "name": "amount",
          "type": "uint256"
        },
        {
          "indexed": false,
          "internalType": "uint256",
          "name": "totalAmount",
          "type": "uint256"
        }
      ],
      "name": "AddDelegatedStake",
      "type": "event"
    },
    {
      "anonymous": false,
      "inputs": [
        {
          "indexed": true,
          "internalType": "address",
          "name": "user",
          "type": "address"
        },
        {
          "indexed": false,
          "internalType": "uint256",
          "name": "newFee",
          "type": "uint256"
        }
      ],
      "name": "CalibratedServiceProviderFee",
      "type": "event"
    },
    {
      "anonymous": false,
      "inputs": [
        {
          "indexed": true,
          "internalType": "address",
          "name": "serviceProvider",
          "type": "address"
        },
        {
          "indexed": true,
          "internalType": "uint256",
          "name": "pid",
          "type": "uint256"
        },
        {
          "indexed": false,
          "internalType": "uint256",
          "name": "amount",
          "type": "uint256"
        },
        {
          "indexed": false,
          "internalType": "uint256",
          "name": "totalAmount",
          "type": "uint256"
        }
      ],
      "name": "DecreasedServiceProviderBond",
      "type": "event"
    },
    {
      "anonymous": false,
      "inputs": [
        {
          "indexed": true,
          "internalType": "address",
          "name": "user",
          "type": "address"
        },
        {
          "indexed": false,
          "internalType": "uint256",
          "name": "amount",
          "type": "uint256"
        }
      ],
      "name": "ExitDelegatedStake",
      "type": "event"
    },
    {
      "anonymous": false,
      "inputs": [
        {
          "indexed": true,
          "internalType": "address",
          "name": "serviceProvider",
          "type": "address"
        },
        {
          "indexed": true,
          "internalType": "uint256",
          "name": "pid",
          "type": "uint256"
        }
      ],
      "name": "ExitedServiceProviderBond",
      "type": "event"
    },
    {
      "anonymous": false,
      "inputs": [
        {
          "indexed": true,
          "internalType": "address",
          "name": "serviceProvider",
          "type": "address"
        },
        {
          "indexed": true,
          "internalType": "uint256",
          "name": "pid",
          "type": "uint256"
        },
        {
          "indexed": false,
          "internalType": "uint256",
          "name": "amount",
          "type": "uint256"
        },
        {
          "indexed": false,
          "internalType": "uint256",
          "name": "totalAmount",
          "type": "uint256"
        }
      ],
      "name": "IncreasedServiceProviderBond",
      "type": "event"
    },
    {
      "anonymous": false,
      "inputs": [
        {
          "indexed": true,
          "internalType": "address",
          "name": "serviceProvider",
          "type": "address"
        },
        {
          "indexed": true,
          "internalType": "address",
          "name": "serviceProviderManager",
          "type": "address"
        },
        {
          "indexed": true,
          "internalType": "uint256",
          "name": "pid",
          "type": "uint256"
        },
        {
          "indexed": false,
          "internalType": "uint256",
          "name": "rewardsFeePercentage",
          "type": "uint256"
        }
      ],
      "name": "StakedServiceProviderBond",
      "type": "event"
    },
    {
      "anonymous": false,
      "inputs": [
        {
          "indexed": true,
          "internalType": "address",
          "name": "user",
          "type": "address"
        },
        {
          "indexed": false,
          "internalType": "uint256",
          "name": "amount",
          "type": "uint256"
        },
        {
          "indexed": false,
          "internalType": "uint256",
          "name": "totalAmount",
          "type": "uint256"
        }
      ],
      "name": "WithdrawDelegatedStakeRequested",
      "type": "event"
    },
    {
      "anonymous": false,
      "inputs": [
        {
          "indexed": true,
          "internalType": "address",
          "name": "user",
          "type": "address"
        },
        {
          "indexed": false,
          "internalType": "uint256",
          "name": "amount",
          "type": "uint256"
        },
        {
          "indexed": false,
          "internalType": "uint256",
          "name": "totalAmount",
          "type": "uint256"
        }
      ],
      "name": "WithdrewDelegatedStake",
      "type": "event"
    },
    {
      "anonymous": false,
      "inputs": [
        {
          "indexed": true,
          "internalType": "address",
          "name": "serviceProvider",
          "type": "address"
        },
        {
          "indexed": false,
          "internalType": "uint256",
          "name": "amount",
          "type": "uint256"
        },
        {
          "indexed": false,
          "internalType": "uint256",
          "name": "totalAmount",
          "type": "uint256"
        }
      ],
      "name": "WithdrewServiceProviderStake",
      "type": "event"
    },
    {
      "inputs": [],
      "name": "PERCENTAGE_MODULO",
      "outputs": [
        {
          "internalType": "uint256",
          "name": "",
          "type": "uint256"
        }
      ],
      "stateMutability": "view",
      "type": "function"
    },
    {
      "inputs": [],
      "name": "accTokensPerShare",
      "outputs": [
        {
          "internalType": "uint256",
          "name": "",
          "type": "uint256"
        }
      ],
      "stateMutability": "view",
      "type": "function"
    },
    {
      "inputs": [
        {
          "internalType": "uint256",
          "name": "_rewardsProgrammeId",
          "type": "uint256"
        },
        {
          "internalType": "uint256",
          "name": "_rewardsFeePercentage",
          "type": "uint256"
        }
      ],
      "name": "adminStakeServiceProviderBond",
      "outputs": [],
      "stateMutability": "nonpayable",
      "type": "function"
    },
    {
      "inputs": [],
      "name": "callibrateServiceProviderFee",
      "outputs": [],
      "stateMutability": "nonpayable",
      "type": "function"
    },
    {
      "inputs": [],
      "name": "controller",
      "outputs": [
        {
          "internalType": "address",
          "name": "",
          "type": "address"
        }
      ],
      "stateMutability": "view",
      "type": "function"
    },
    {
      "inputs": [],
      "name": "cudosToken",
      "outputs": [
        {
          "internalType": "contract IERC20",
          "name": "",
          "type": "address"
        }
      ],
      "stateMutability": "view",
      "type": "function"
    },
    {
      "inputs": [
        {
          "internalType": "uint256",
          "name": "_amount",
          "type": "uint256"
        }
      ],
      "name": "delegateStake",
      "outputs": [],
      "stateMutability": "nonpayable",
      "type": "function"
    },
    {
      "inputs": [
        {
          "internalType": "address",
          "name": "",
          "type": "address"
        }
      ],
      "name": "delegatedStake",
      "outputs": [
        {
          "internalType": "uint256",
          "name": "",
          "type": "uint256"
        }
      ],
      "stateMutability": "view",
      "type": "function"
    },
    {
      "inputs": [],
      "name": "exitAsDelegator",
      "outputs": [],
      "stateMutability": "nonpayable",
      "type": "function"
    },
    {
      "inputs": [],
      "name": "exitAsServiceProvider",
      "outputs": [],
      "stateMutability": "nonpayable",
      "type": "function"
    },
    {
      "inputs": [],
      "name": "exited",
      "outputs": [
        {
          "internalType": "bool",
          "name": "",
          "type": "bool"
        }
      ],
      "stateMutability": "view",
      "type": "function"
    },
    {
      "inputs": [],
      "name": "getReward",
      "outputs": [],
      "stateMutability": "nonpayable",
      "type": "function"
    },
    {
      "inputs": [
        {
          "internalType": "uint256",
          "name": "_amount",
          "type": "uint256"
        }
      ],
      "name": "increaseServiceProviderStake",
      "outputs": [],
      "stateMutability": "nonpayable",
      "type": "function"
    },
    {
      "inputs": [
        {
          "internalType": "address",
          "name": "_serviceProvider",
          "type": "address"
        },
        {
          "internalType": "contract IERC20",
          "name": "_cudosToken",
          "type": "address"
        }
      ],
      "name": "init",
      "outputs": [],
      "stateMutability": "nonpayable",
      "type": "function"
    },
    {
      "inputs": [],
      "name": "isServiceProviderFullySetup",
      "outputs": [
        {
          "internalType": "bool",
          "name": "",
          "type": "bool"
        }
      ],
      "stateMutability": "view",
      "type": "function"
    },
    {
      "inputs": [],
      "name": "lastRewardBlock",
      "outputs": [
        {
          "internalType": "uint256",
          "name": "",
          "type": "uint256"
        }
      ],
      "stateMutability": "view",
      "type": "function"
    },
    {
      "inputs": [],
      "name": "minStakingLength",
      "outputs": [
        {
          "internalType": "uint256",
          "name": "",
          "type": "uint256"
        }
      ],
      "stateMutability": "view",
      "type": "function"
    },
    {
      "inputs": [
        {
          "internalType": "address",
          "name": "_user",
          "type": "address"
        }
      ],
      "name": "pendingRewards",
      "outputs": [
        {
          "internalType": "uint256",
          "name": "",
          "type": "uint256"
        }
      ],
      "stateMutability": "view",
      "type": "function"
    },
    {
      "inputs": [
        {
          "internalType": "address",
          "name": "_erc20",
          "type": "address"
        },
        {
          "internalType": "address",
          "name": "_recipient",
          "type": "address"
        },
        {
          "internalType": "uint256",
          "name": "_amount",
          "type": "uint256"
        }
      ],
      "name": "recoverERC20",
      "outputs": [],
      "stateMutability": "nonpayable",
      "type": "function"
    },
    {
      "inputs": [
        {
          "internalType": "uint256",
          "name": "_amount",
          "type": "uint256"
        }
      ],
      "name": "requestDelegatedStakeWithdrawal",
      "outputs": [],
      "stateMutability": "nonpayable",
      "type": "function"
    },
    {
      "inputs": [
        {
          "internalType": "uint256",
          "name": "_amount",
          "type": "uint256"
        }
      ],
      "name": "requestExcessServiceProviderStakeWithdrawal",
      "outputs": [],
      "stateMutability": "nonpayable",
      "type": "function"
    },
    {
      "inputs": [
        {
          "internalType": "address",
          "name": "",
          "type": "address"
        }
      ],
      "name": "rewardDebt",
      "outputs": [
        {
          "internalType": "uint256",
          "name": "",
          "type": "uint256"
        }
      ],
      "stateMutability": "view",
      "type": "function"
    },
    {
      "inputs": [],
      "name": "rewardsFeePercentage",
      "outputs": [
        {
          "internalType": "uint256",
          "name": "",
          "type": "uint256"
        }
      ],
      "stateMutability": "view",
      "type": "function"
    },
    {
      "inputs": [],
      "name": "rewardsProgrammeId",
      "outputs": [
        {
          "internalType": "uint256",
          "name": "",
          "type": "uint256"
        }
      ],
      "stateMutability": "view",
      "type": "function"
    },
    {
      "inputs": [],
      "name": "serviceProvider",
      "outputs": [
        {
          "internalType": "address",
          "name": "",
          "type": "address"
        }
      ],
      "stateMutability": "view",
      "type": "function"
    },
    {
      "inputs": [],
      "name": "serviceProviderManager",
      "outputs": [
        {
          "internalType": "address",
          "name": "",
          "type": "address"
        }
      ],
      "stateMutability": "view",
      "type": "function"
    },
    {
      "inputs": [
        {
          "internalType": "uint256",
          "name": "_rewardsProgrammeId",
          "type": "uint256"
        },
        {
          "internalType": "uint256",
          "name": "_rewardsFeePercentage",
          "type": "uint256"
        }
      ],
      "name": "stakeServiceProviderBond",
      "outputs": [],
      "stateMutability": "nonpayable",
      "type": "function"
    },
    {
      "inputs": [],
      "name": "totalDelegatedStake",
      "outputs": [
        {
          "internalType": "uint256",
          "name": "",
          "type": "uint256"
        }
      ],
      "stateMutability": "view",
      "type": "function"
    },
    {
      "inputs": [],
      "name": "withdrawDelegatedStake",
      "outputs": [],
      "stateMutability": "nonpayable",
      "type": "function"
    },
    {
      "inputs": [],
      "name": "withdrawServiceProviderStake",
      "outputs": [],
      "stateMutability": "nonpayable",
      "type": "function"
    },
    {
      "inputs": [
        {
          "internalType": "address",
          "name": "",
          "type": "address"
        }
      ],
      "name": "withdrawalRequest",
      "outputs": [
        {
          "internalType": "uint256",
          "name": "withdrawalPermittedFrom",
          "type": "uint256"
        },
        {
          "internalType": "uint256",
          "name": "amount",
          "type": "uint256"
        },
        {
          "internalType": "uint256",
          "name": "lastStakedBlock",
          "type": "uint256"
        }
      ],
      "stateMutability": "view",
      "type": "function"
    }
  ],
  "bytecode": "0x608060405234801561001057600080fd5b5060016000556136db806100256000396000f3fe608060405234801561001057600080fd5b50600436106101e55760003560e01c80635873eb9b1161010f578063a9f8d181116100a2578063e57210bf11610071578063e57210bf1461037c578063f09a401614610384578063f77c479114610397578063f92f9b0e1461039f576101e5565b8063a9f8d1811461033b578063af47a1bd14610343578063d64c4c4f14610356578063d6be8f5814610369576101e5565b8063740b229d116100de578063740b229d1461031b5780637f0a8581146103235780638d69e95e1461032b578063a95e587314610333576101e5565b80635873eb9b146102e35780635ce6c327146102f65780635f9ed43e1461030b5780636c3ac10e14610313576101e5565b806329929fb2116101875780633cad4854116101565780633cad4854146102ad5780633d18b912146102c0578063460345eb146102c85780634a4d568d146102db576101e5565b806329929fb2146102775780632b69cbf61461027f5780632f3c9a4f1461029257806331d7a2621461029a576101e5565b80631c16ff7e116101c35780631c16ff7e146102325780631ef44e681461023a5780632191e9de1461025c5780632537d5fd14610264576101e5565b806303b923db146101ea5780631171bda91461020857806314c384261461021d575b600080fd5b6101f26103a7565b6040516101ff91906132a9565b60405180910390f35b61021b6102163660046131c0565b6103b6565b005b6102256104e6565b6040516101ff91906135a9565b61021b6104ec565b61024d6102483660046131a4565b61083d565b6040516101ff939291906135f6565b61021b61085d565b61021b610272366004613258565b61093f565b61021b610de8565b61021b61028d366004613258565b61103d565b610225611381565b6102256102a83660046131a4565b611387565b61021b6102bb366004613288565b611536565b61021b6115cd565b61021b6102d6366004613288565b61162a565b610225611725565b6102256102f13660046131a4565b61172b565b6102fe61173d565b6040516101ff91906132d6565b61021b61174d565b6101f261196d565b61022561197c565b6102fe611982565b6101f2611992565b6102256119a1565b6102256119a7565b6102256103513660046131a4565b6119ad565b61021b610364366004613258565b6119bf565b61021b610377366004613258565b611dc4565b610225612171565b61021b610392366004613200565b612177565b6101f2612248565b61021b612257565b6004546001600160a01b031681565b6002546001600160a01b031663c395fcb36103cf612528565b6040518263ffffffff1660e01b81526004016103eb91906132a9565b60206040518083038186803b15801561040357600080fd5b505afa158015610417573d6000803e3d6000fd5b505050506040513d601f19601f8201168201806040525081019061043b9190613238565b6104605760405162461bcd60e51b8152600401610457906134de565b60405180910390fd5b60405163a9059cbb60e01b81526001600160a01b0384169063a9059cbb9061048e90859085906004016132bd565b602060405180830381600087803b1580156104a857600080fd5b505af11580156104bc573d6000803e3d6000fd5b505050506040513d601f19601f820116820180604052508101906104e09190613238565b50505050565b60095481565b6002600054141561050f5760405162461bcd60e51b8152600401610457906134fa565b60026000556004546001600160a01b0316610528612528565b6001600160a01b03161461054e5760405162461bcd60e51b8152600401610457906133d1565b6002546001600160a01b03166000600181610567612528565b6001600160a01b0316815260208101919091526040016000206002810154600b549192509061059790829061252c565b836001600160a01b031663cb533a246040518163ffffffff1660e01b815260040160206040518083038186803b1580156105d057600080fd5b505afa1580156105e4573d6000803e3d6000fd5b505050506040513d601f19601f820116820180604052508101906106089190613270565b10156106265760405162461bcd60e51b8152600401610457906133b3565b61062e61253f565b6000836001600160a01b0316636cf6d6756040518163ffffffff1660e01b815260040160206040518083038186803b15801561066957600080fd5b505afa15801561067d573d6000803e3d6000fd5b505050506040513d601f19601f820116820180604052508101906106a19190613270565b905061071e81856001600160a01b031663cb533a246040518163ffffffff1660e01b815260040160206040518083038186803b1580156106e057600080fd5b505afa1580156106f4573d6000803e3d6000fd5b505050506040513d601f19601f820116820180604052508101906107189190613270565b9061252c565b83556003546001600160a01b031660009081526007602052604090205460018401546107499161252c565b6001840155600254600a54604051637f8661a160e01b81526001600160a01b0390921691637f8661a19161077f916004016135a9565b600060405180830381600087803b15801561079957600080fd5b505af11580156107ad573d6000803e3d6000fd5b50506003546001600160a01b0316600090815260076020526040812080549190556009549092506107df9150826127e4565b6009556005805461ffff60a01b1916600160a81b179055600a546003546040516001600160a01b03909116907fa50c9da3dd21bfe280fda18d04cc1fedbeaf9edc4a7633278a591f523d499e9c90600090a350506001600055505050565b600160208190526000918252604090912080549181015460029091015483565b60025460408051635b89ed5560e01b815290516001600160a01b03909216916000918391635b89ed5591600480820192602092909190829003018186803b1580156108a757600080fd5b505afa1580156108bb573d6000803e3d6000fd5b505050506040513d601f19601f820116820180604052508101906108df9190613270565b905080600654101561093b5760068190556108f8612528565b6001600160a01b03167f1c392f6043d1bb8d64272ca2d28d2d086176a97587f3ee25fc0fe845cb982e1b60065460405161093291906135a9565b60405180910390a25b5050565b600260005414156109625760405162461bcd60e51b8152600401610457906134fa565b6002600055600554600160a81b900460ff16156109915760405162461bcd60e51b8152600401610457906132e1565b600554600160a01b900460ff166109ba5760405162461bcd60e51b8152600401610457906134c0565b80600081116109db5760405162461bcd60e51b815260040161045790613466565b6004546001600160a01b03166109ef612528565b6001600160a01b031614158015610a2157506003546001600160a01b0316610a15612528565b6001600160a01b031614155b610a3d5760405162461bcd60e51b81526004016104579061356d565b8160076000610a4a612528565b6001600160a01b03166001600160a01b03168152602001908152602001600020541015610a895760405162461bcd60e51b815260040161045790613484565b6002546001600160a01b03166000600181610aa2612528565b6001600160a01b0316815260208101919091526040016000206002810154600b5491925090610ad290829061252c565b836001600160a01b031663cb533a246040518163ffffffff1660e01b815260040160206040518083038186803b158015610b0b57600080fd5b505afa158015610b1f573d6000803e3d6000fd5b505050506040513d601f19601f82011682018060405250810190610b439190613270565b1015610b615760405162461bcd60e51b8152600401610457906133b3565b610b6961253f565b6000836001600160a01b0316636cf6d6756040518163ffffffff1660e01b815260040160206040518083038186803b158015610ba457600080fd5b505afa158015610bb8573d6000803e3d6000fd5b505050506040513d601f19601f82011682018060405250810190610bdc9190613270565b9050610c1b81856001600160a01b031663cb533a246040518163ffffffff1660e01b815260040160206040518083038186803b1580156106e057600080fd5b83556001830154610c2c908761252c565b6001840155610c618660076000610c41612528565b6001600160a01b03168152602081019190915260400160002054906127e4565b60076000610c6d612528565b6001600160a01b03168152602081019190915260400160002055600954610c9490876127e4565b600955600a54604051631cc6d2f960e31b81526001600160a01b0386169163e63697c891610cc9919030908b906004016135c9565b600060405180830381600087803b158015610ce357600080fd5b505af1158015610cf7573d6000803e3d6000fd5b50505050610d3f670de0b6b3a7640000610d39600c5460076000610d19612528565b6001600160a01b03168152602081019190915260400160002054906127f0565b906127fc565b60086000610d4b612528565b6001600160a01b03168152602081019190915260400160002055610d6d612528565b6001600160a01b03167f269e1d835d1fe32bd1ae980e24f483d6a29f7c236e2eef5ff841fdda661a06738760076000610da4612528565b6001600160a01b03166001600160a01b0316815260200190815260200160002054604051610dd39291906135e8565b60405180910390a25050600160005550505050565b60026000541415610e0b5760405162461bcd60e51b8152600401610457906134fa565b60026000556004546001600160a01b0316610e24612528565b6001600160a01b031614610e4a5760405162461bcd60e51b8152600401610457906133d1565b600060016000610e58612528565b6001600160a01b03166001600160a01b0316815260200190815260200160002090506000816001015411610e9e5760405162461bcd60e51b8152600401610457906133b3565b8054600254604080516332d4ce8960e21b815290516001600160a01b039092169163cb533a2491600480820192602092909190829003018186803b158015610ee557600080fd5b505afa158015610ef9573d6000803e3d6000fd5b505050506040513d601f19601f82011682018060405250810190610f1d9190613270565b1015610f3b5760405162461bcd60e51b815260040161045790613377565b60018101805460009091556005546001600160a01b031663a9059cbb610f5f612528565b836040518363ffffffff1660e01b8152600401610f7d9291906132bd565b602060405180830381600087803b158015610f9757600080fd5b505af1158015610fab573d6000803e3d6000fd5b505050506040513d601f19601f82011682018060405250810190610fcf9190613238565b50610fd8612528565b6003546001600160a01b039081166000908152600760205260409081902054905192909116917f591e0232798675e699c31a9d8e576c56d046c9dacb203b5fd683346d134e78a29161102c918591906135e8565b60405180910390a250506001600055565b600260005414156110605760405162461bcd60e51b8152600401610457906134fa565b6002600055600554600160a01b900460ff1661108e5760405162461bcd60e51b8152600401610457906134c0565b6004546001600160a01b03166110a2612528565b6001600160a01b0316141580156110d457506003546001600160a01b03166110c8612528565b6001600160a01b031614155b6110f05760405162461bcd60e51b81526004016104579061356d565b80600081116111115760405162461bcd60e51b815260040161045790613466565b61111961253f565b600254600a546001600160a01b0390911690636e9c931c90611139612528565b856040518463ffffffff1660e01b8152600401611158939291906135c9565b600060405180830381600087803b15801561117257600080fd5b505af1158015611186573d6000803e3d6000fd5b50505050600060076000611198612528565b6001600160a01b0316815260208101919091526040016000205490506111be818461252c565b600760006111ca612528565b6001600160a01b031681526020810191909152604001600020556009546111f1908461252c565b600981905550611215670de0b6b3a7640000610d39600c5460076000610d19612528565b60086000611221612528565b6001600160a01b03166001600160a01b0316815260200190815260200160002081905550600060016000611253612528565b6001600160a01b03166001600160a01b031681526020019081526020016000209050600260009054906101000a90046001600160a01b03166001600160a01b031663cb533a246040518163ffffffff1660e01b815260040160206040518083038186803b1580156112c357600080fd5b505afa1580156112d7573d6000803e3d6000fd5b505050506040513d601f19601f820116820180604052508101906112fb9190613270565b6002820155611308612528565b6001600160a01b03167fa24faf0e6e141b763b1fc4c368c1b376b066a667ef7620d6f6909118f5d4d6e0856007600061133f612528565b6001600160a01b03166001600160a01b031681526020019081526020016000205460405161136e9291906135e8565b60405180910390a2505060016000555050565b600c5481565b600254600a54604051632258a2f160e11b815260009283926001600160a01b03909116916344b145e2916113bf9130906004016135b2565b60206040518083038186803b1580156113d757600080fd5b505afa1580156113eb573d6000803e3d6000fd5b505050506040513d601f19601f8201168201806040525081019061140f9190613270565b905060008060008061142085612808565b600354939750919550935091506001600160a01b03888116911614801561145457506004546001600160a01b038881169116145b1561146f57611463828461252c565b95505050505050611531565b6003546001600160a01b0388811691161415611492578295505050505050611531565b6004546001600160a01b03888116911614156114b45750935061153192505050565b600c5484156114e0576114dd6114d686610d3985670de0b6b3a76400006127f0565b829061252c565b90505b6001600160a01b038816600090815260086020908152604080832054600790925290912054611528919061152290670de0b6b3a764000090610d3990866127f0565b906127e4565b96505050505050505b919050565b600260005414156115595760405162461bcd60e51b8152600401610457906134fa565b60026000556003546001600160a01b0316611572612528565b6001600160a01b0316146115985760405162461bcd60e51b81526004016104579061358b565b600354600480546001600160a01b0319166001600160a01b039092169190911790556115c482826128d6565b50506001600055565b600554600160a81b900460ff16156115f75760405162461bcd60e51b8152600401610457906132e1565b600554600160a01b900460ff166116205760405162461bcd60e51b8152600401610457906134c0565b611628612ca8565b565b6002600054141561164d5760405162461bcd60e51b8152600401610457906134fa565b60026000819055546001600160a01b031663c395fcb361166b612528565b6040518263ffffffff1660e01b815260040161168791906132a9565b60206040518083038186803b15801561169f57600080fd5b505afa1580156116b3573d6000803e3d6000fd5b505050506040513d601f19601f820116820180604052508101906116d79190613238565b6116f35760405162461bcd60e51b8152600401610457906134de565b6116fb612528565b600480546001600160a01b0319166001600160a01b03929092169190911790556115c482826128d6565b61271081565b60086020526000908152604090205481565b600554600160a81b900460ff1681565b600260005414156117705760405162461bcd60e51b8152600401610457906134fa565b6002600055600554600160a81b900460ff1661179e5760405162461bcd60e51b8152600401610457906133ef565b6000600160006117ac612528565b6001600160a01b03166001600160a01b0316815260200190815260200160002090506000816001015490506000600760006117e5612528565b6001600160a01b031681526020810191909152604001600090812054915061180d838361252c565b90506000811161182f5760405162461bcd60e51b815260040161045790613531565b811561183d5761183d612d5d565b600060018501819055600781611851612528565b6001600160a01b0316815260208101919091526040016000205560095461187890836127e4565b6009556005546001600160a01b031663a9059cbb611894612528565b836040518363ffffffff1660e01b81526004016118b29291906132bd565b602060405180830381600087803b1580156118cc57600080fd5b505af11580156118e0573d6000803e3d6000fd5b505050506040513d601f19601f820116820180604052508101906119049190613238565b50600060086000611913612528565b6001600160a01b03168152602081019190915260400160002055611935612528565b6001600160a01b03167f5b3705fd967ed945ed6587be2ca68963c8777d4807be86dc027dca131acef37b8260405161136e91906135a9565b6005546001600160a01b031681565b600a5481565b600554600160a01b900460ff1681565b6003546001600160a01b031681565b60065481565b600d5481565b60076020526000908152604090205481565b600260005414156119e25760405162461bcd60e51b8152600401610457906134fa565b6002600055600554600160a01b900460ff16611a105760405162461bcd60e51b8152600401610457906134c0565b6004546001600160a01b0316611a24612528565b6001600160a01b031614611a4a5760405162461bcd60e51b8152600401610457906133d1565b8060008111611a6b5760405162461bcd60e51b815260040161045790613466565b6002546001600160a01b03166000600181611a84612528565b6001600160a01b0316815260208101919091526040016000206002810154600b5491925090611ab490829061252c565b836001600160a01b031663cb533a246040518163ffffffff1660e01b815260040160206040518083038186803b158015611aed57600080fd5b505afa158015611b01573d6000803e3d6000fd5b505050506040513d601f19601f82011682018060405250810190611b259190613270565b1015611b435760405162461bcd60e51b8152600401610457906133b3565b6003546001600160a01b0316600090815260076020526040812054611b6890876127e4565b9050836001600160a01b031663bc1784396040518163ffffffff1660e01b815260040160206040518083038186803b158015611ba357600080fd5b505afa158015611bb7573d6000803e3d6000fd5b505050506040513d601f19601f82011682018060405250810190611bdb9190613270565b811015611bfa5760405162461bcd60e51b81526004016104579061354f565b611c0261253f565b6000846001600160a01b0316636cf6d6756040518163ffffffff1660e01b815260040160206040518083038186803b158015611c3d57600080fd5b505afa158015611c51573d6000803e3d6000fd5b505050506040513d601f19601f82011682018060405250810190611c759190613270565b9050611cb481866001600160a01b031663cb533a246040518163ffffffff1660e01b815260040160206040518083038186803b1580156106e057600080fd5b84556001840154611cc5908861252c565b60018501556003546001600160a01b03166000908152600760205260409020829055600954611cf490886127e4565b600955600a54604051631cc6d2f960e31b81526001600160a01b0387169163e63697c891611d29919030908c906004016135c9565b600060405180830381600087803b158015611d4357600080fd5b505af1158015611d57573d6000803e3d6000fd5b5050600a546003546001600160a01b0316600081815260076020526040908190205490519294509092507f47bc1d49784fdc73a13413362472ba8ab1ba4ae1ca47d4b101db79c2a0f7fe0691611dae918c916135e8565b60405180910390a3505060016000555050505050565b60026000541415611de75760405162461bcd60e51b8152600401610457906134fa565b6002600055600554600160a01b900460ff16611e155760405162461bcd60e51b8152600401610457906134c0565b6004546001600160a01b0316611e29612528565b6001600160a01b031614611e4f5760405162461bcd60e51b8152600401610457906133d1565b8060008111611e705760405162461bcd60e51b815260040161045790613466565b600254604080516399d9b6ff60e01b815290516001600160a01b039092169160009183916399d9b6ff91600480820192602092909190829003018186803b158015611eba57600080fd5b505afa158015611ece573d6000803e3d6000fd5b505050506040513d601f19601f82011682018060405250810190611ef29190613270565b90506000826001600160a01b0316631368f9b3600a54306040518363ffffffff1660e01b8152600401611f269291906135b2565b60206040518083038186803b158015611f3e57600080fd5b505afa158015611f52573d6000803e3d6000fd5b505050506040513d601f19601f82011682018060405250810190611f769190613270565b905081611f83828761252c565b1115611fa15760405162461bcd60e51b8152600401610457906134a2565b611fa961253f565b600254600a5460048054604051631ba724c760e21b81526001600160a01b0394851694636e9c931c94611fe4949093909116918b91016135c9565b600060405180830381600087803b158015611ffe57600080fd5b505af1158015612012573d6000803e3d6000fd5b50506003546001600160a01b031660009081526007602052604090205461203c925090508661252c565b6003546001600160a01b0316600090815260076020526040902055600954612064908661252c565b6009556000600181612074612528565b6001600160a01b03166001600160a01b031681526020019081526020016000209050836001600160a01b031663cb533a246040518163ffffffff1660e01b815260040160206040518083038186803b1580156120cf57600080fd5b505afa1580156120e3573d6000803e3d6000fd5b505050506040513d601f19601f820116820180604052508101906121079190613270565b6002820155600a546003546001600160a01b0316600081815260076020526040908190205490517f704f023dc526a73c31670156596b84b34a2a396b77137d37f999b3e371372a8e9161215c918b91906135e8565b60405180910390a35050600160005550505050565b600b5481565b6003546001600160a01b0316156121a05760405162461bcd60e51b81526004016104579061331d565b6001600160a01b0382166121c65760405162461bcd60e51b815260040161045790613395565b6001600160a01b0381166121ec5760405162461bcd60e51b815260040161045790613448565b600380546001600160a01b038085166001600160a01b0319928316179092556005805492841692909116919091179055612224612528565b600280546001600160a01b0319166001600160a01b03929092169190911790555050565b6002546001600160a01b031681565b6002600054141561227a5760405162461bcd60e51b8152600401610457906134fa565b6002600055600554600160a81b900460ff16156122a95760405162461bcd60e51b8152600401610457906132e1565b600554600160a01b900460ff166122d25760405162461bcd60e51b8152600401610457906134c0565b6004546001600160a01b03166122e6612528565b6001600160a01b03161415801561231857506003546001600160a01b031661230c612528565b6001600160a01b031614155b6123345760405162461bcd60e51b81526004016104579061356d565b600060016000612342612528565b6001600160a01b03166001600160a01b03168152602001908152602001600020905060008160010154116123885760405162461bcd60e51b81526004016104579061340d565b8054600254604080516332d4ce8960e21b815290516001600160a01b039092169163cb533a2491600480820192602092909190829003018186803b1580156123cf57600080fd5b505afa1580156123e3573d6000803e3d6000fd5b505050506040513d601f19601f820116820180604052508101906124079190613270565b10156124255760405162461bcd60e51b815260040161045790613377565b60018101805460009091556005546001600160a01b031663a9059cbb612449612528565b836040518363ffffffff1660e01b81526004016124679291906132bd565b602060405180830381600087803b15801561248157600080fd5b505af1158015612495573d6000803e3d6000fd5b505050506040513d601f19601f820116820180604052508101906124b99190613238565b506124c2612528565b6001600160a01b03167fc861b9df0b2620b5fe9d7fde49ec475edf5c1d529cfe6f9f64f12405109cb6c082600760006124f9612528565b6001600160a01b03166001600160a01b031681526020019081526020016000205460405161102c9291906135e8565b3390565b6000612538828461360c565b9392505050565b6005546040516370a0823160e01b81526000916001600160a01b0316906370a08231906125709030906004016132a9565b60206040518083038186803b15801561258857600080fd5b505afa15801561259c573d6000803e3d6000fd5b505050506040513d601f19601f820116820180604052508101906125c09190613270565b600254600a5460405163a42efaa760e01b81529293506001600160a01b039091169163a42efaa7916125f4916004016135a9565b600060405180830381600087803b15801561260e57600080fd5b505af1158015612622573d6000803e3d6000fd5b50506005546040516370a0823160e01b8152600093506001600160a01b0390911691506370a08231906126599030906004016132a9565b60206040518083038186803b15801561267157600080fd5b505afa158015612685573d6000803e3d6000fd5b505050506040513d601f19601f820116820180604052508101906126a99190613270565b905060006126b782846127e4565b905080156126c8576126c881612e82565b600260009054906101000a90046001600160a01b03166001600160a01b031663cb533a246040518163ffffffff1660e01b815260040160206040518083038186803b15801561271657600080fd5b505afa15801561272a573d6000803e3d6000fd5b505050506040513d601f19601f8201168201806040525081019061274e9190613270565b600d5414156127df576004546001600160a01b031661276b612528565b6001600160a01b03161415801561279d57506003546001600160a01b0316612791612528565b6001600160a01b031614155b156127df576000600760006127b0612528565b6001600160a01b03166001600160a01b031681526020019081526020016000205411156127df576127df612d5d565b505050565b60006125388284613663565b60006125388284613644565b60006125388284613624565b6000806000806009546000141561282a575060009250829150819050806128cf565b6003546001600160a01b0316600090815260076020526040812054600954612851916127e4565b90506000612870600954610d39612710856127f090919063ffffffff16565b90506000612884612710610d398a856127f0565b9050600061289289836127e4565b905060006128b1612710610d39600654866127f090919063ffffffff16565b905060006128bf84836127e4565b9599509097509095509293505050505b9193509193565b600554600160a01b900460ff16156129005760405162461bcd60e51b815260040161045790613359565b600554600160a81b900460ff161561292a5760405162461bcd60e51b81526004016104579061333b565b60008111801561293b575061271081105b6129575760405162461bcd60e51b81526004016104579061342b565b6002546040805163bc17843960e01b815290516001600160a01b0390921691600091839163bc17843991600480820192602092909190829003018186803b1580156129a157600080fd5b505afa1580156129b5573d6000803e3d6000fd5b505050506040513d601f19601f820116820180604052508101906129d99190613270565b90506000826001600160a01b0316635b89ed556040518163ffffffff1660e01b815260040160206040518083038186803b158015612a1657600080fd5b505afa158015612a2a573d6000803e3d6000fd5b505050506040513d601f19601f82011682018060405250810190612a4e9190613270565b905080841015612a705760405162461bcd60e51b8152600401610457906132ff565b6006849055600a859055604051630120f08d60e21b81526001600160a01b03841690630483c23490612aa69088906004016135a9565b60206040518083038186803b158015612abe57600080fd5b505afa158015612ad2573d6000803e3d6000fd5b505050506040513d601f19601f82011682018060405250810190612af69190613270565b600b556005805460ff60a01b1916600160a01b1790556003546001600160a01b03166000908152600760205260409020829055600954612b36908361252c565b600955612b4161253f565b826001600160a01b0316636e9c931c86612b59612528565b856040518463ffffffff1660e01b8152600401612b78939291906135c9565b600060405180830381600087803b158015612b9257600080fd5b505af1158015612ba6573d6000803e3d6000fd5b50505050600060016000612bb8612528565b6001600160a01b03166001600160a01b031681526020019081526020016000209050836001600160a01b031663cb533a246040518163ffffffff1660e01b815260040160206040518083038186803b158015612c1357600080fd5b505afa158015612c27573d6000803e3d6000fd5b505050506040513d601f19601f82011682018060405250810190612c4b9190613270565b600282015560045460035460065460405189936001600160a01b039081169316917f4cc243ed0ad904bb13fd3b0c99807f2f5ce80430c6c2f17cd8f5cb402beed8d691612c9891906135a9565b60405180910390a4505050505050565b6005546040516370a0823160e01b81526000916001600160a01b0316906370a0823190612cd99030906004016132a9565b60206040518083038186803b158015612cf157600080fd5b505afa158015612d05573d6000803e3d6000fd5b505050506040513d601f19601f82011682018060405250810190612d299190613270565b600254600a54604051631c4b774b60e01b81529293506001600160a01b0390911691631c4b774b916125f4916004016135a9565b6000612dad60086000612d6e612528565b6001600160a01b03166001600160a01b0316815260200190815260200160002054611522670de0b6b3a7640000610d39600c5460076000610d19612528565b90508015612e7f57612dd3670de0b6b3a7640000610d39600c5460076000610d19612528565b60086000612ddf612528565b6001600160a01b0390811682526020820192909252604001600020919091556005541663a9059cbb612e0f612528565b836040518363ffffffff1660e01b8152600401612e2d9291906132bd565b602060405180830381600087803b158015612e4757600080fd5b505af1158015612e5b573d6000803e3d6000fd5b505050506040513d601f19601f8201168201806040525081019061093b9190613238565b50565b600080600080612e9185612808565b93509350935093506000841115612ec857612ec4612ebb85610d3984670de0b6b3a76400006127f0565b600c549061252c565b600c555b6004546001600160a01b0316612edc612528565b6001600160a01b031614158015612f0e57506003546001600160a01b0316612f02612528565b6001600160a01b031614155b15612f5057600060076000612f21612528565b6001600160a01b03166001600160a01b03168152602001908152602001600020541115612f5057612f50612d5d565b6004546003546001600160a01b0390811691161415613001576005546003546001600160a01b039182169163a9059cbb9116612f8c858761252c565b6040518363ffffffff1660e01b8152600401612fa99291906132bd565b602060405180830381600087803b158015612fc357600080fd5b505af1158015612fd7573d6000803e3d6000fd5b505050506040513d601f19601f82011682018060405250810190612ffb9190613238565b50613114565b6005546004805460405163a9059cbb60e01b81526001600160a01b039384169363a9059cbb9361303793909116918791016132bd565b602060405180830381600087803b15801561305157600080fd5b505af1158015613065573d6000803e3d6000fd5b505050506040513d601f19601f820116820180604052508101906130899190613238565b5060055460035460405163a9059cbb60e01b81526001600160a01b039283169263a9059cbb926130c09291169087906004016132bd565b602060405180830381600087803b1580156130da57600080fd5b505af11580156130ee573d6000803e3d6000fd5b505050506040513d601f19601f820116820180604052508101906131129190613238565b505b600260009054906101000a90046001600160a01b03166001600160a01b031663cb533a246040518163ffffffff1660e01b815260040160206040518083038186803b15801561316257600080fd5b505afa158015613176573d6000803e3d6000fd5b505050506040513d601f19601f8201168201806040525081019061319a9190613270565b600d555050505050565b6000602082840312156131b5578081fd5b813561253881613690565b6000806000606084860312156131d4578182fd5b83356131df81613690565b925060208401356131ef81613690565b929592945050506040919091013590565b60008060408385031215613212578182fd5b823561321d81613690565b9150602083013561322d81613690565b809150509250929050565b600060208284031215613249578081fd5b81518015158114612538578182fd5b600060208284031215613269578081fd5b5035919050565b600060208284031215613281578081fd5b5051919050565b6000806040838503121561329a578182fd5b50508035926020909101359150565b6001600160a01b0391909116815260200190565b6001600160a01b03929092168252602082015260400190565b901515815260200190565b60208082526004908201526314d4121360e21b604082015260600190565b6020808252600490820152635350463160e01b604082015260600190565b6020808252600490820152635350493160e01b604082015260600190565b6020808252600490820152634543523160e01b604082015260600190565b6020808252600490820152635350433760e01b604082015260600190565b6020808252600490820152635350573360e01b604082015260600190565b60208082526004908201526329a8249960e11b604082015260600190565b6020808252600490820152635350573560e01b604082015260600190565b6020808252600490820152635350433360e01b604082015260600190565b6020808252600490820152635350453160e01b604082015260600190565b60208082526004908201526329a82b9960e11b604082015260600190565b60208082526003908201526223281960e91b604082015260600190565b6020808252600490820152635350493360e01b604082015260600190565b60208082526004908201526329a8219b60e11b604082015260600190565b60208082526004908201526314d415cd60e21b604082015260600190565b6020808252600490820152635350533160e01b604082015260600190565b60208082526004908201526329a8219960e11b604082015260600190565b6020808252600290820152614f4160f01b604082015260600190565b6020808252601f908201527f5265656e7472616e637947756172643a207265656e7472616e742063616c6c00604082015260600190565b6020808252600490820152635350573160e01b604082015260600190565b6020808252600490820152635350573760e01b604082015260600190565b60208082526004908201526314d410cd60e21b604082015260600190565b6020808252600490820152635350433160e01b604082015260600190565b90815260200190565b9182526001600160a01b0316602082015260400190565b9283526001600160a01b03919091166020830152604082015260600190565b918252602082015260400190565b9283526020830191909152604082015260600190565b6000821982111561361f5761361f61367a565b500190565b60008261363f57634e487b7160e01b81526012600452602481fd5b500490565b600081600019048311821515161561365e5761365e61367a565b500290565b6000828210156136755761367561367a565b500390565b634e487b7160e01b600052601160045260246000fd5b6001600160a01b0381168114612e7f57600080fdfea2646970667358221220da7a5c1ac2db46bbdde4fd14a2b860e9008eff6bfcb778791ba9e2a5681b14d264736f6c63430008000033",
  "linkReferences": {},
  "deployedLinkReferences": {}
}